:100000000C9434000C943E000C943E000C943E0082
:100010000C943E000C943E000C943E000C943E0068
:100020000C943E000C943E000C943E000C943E0058
:100030000C943E000C943E000C943E000C943E0048
:100040000C943E000C943E000C943E000C943E0038
:100050000C943E000C943E000C943E000C943E0028
:100060000C943E000C943E0011241FBECFEFD8E04C
:10007000DEBFCDBF0E94B3000C9421010C940000A0
:100080009BB19F709BB99BB1807F892B8BB9299ABB
:10009000299A29980895CF93C82F28980E94400044
:1000A0008C2F8295807F0E9440008FE39FE1019713
:1000B000F1F700C00000CF910895811104C080E8DD
:1000C000860F0C944B0080ECFBCF8AB1806F8AB90D
:1000D000209A219A22988FE59AEE0197F1F700C0B5
:1000E000000080E30E9440008FE19EE40197F1F759
:1000F00000C0000080E30E9440008FED91E0019776
:10010000F1F700C0000080E30E94400080E20E94FE
:1001100040008FE39FE10197F1F700C0000088E203
:100120000E944B008FE00C944B00CF93C82F289A6D
:100130000E9440008C2F8295807F0E9440008FE3B8
:100140009FE10197F1F700C00000CF910895CF9390
:10015000DF93EC018991811103C0DF91CF91089564
:100160000E949500F7CF87B18B7E87B988B18461F3
:1001700088B923982B9A0E94650010E000E0C0E047
:10018000D0E08AE0E82EF12C329B23C0349B23C0C0
:100190001B9BD2E0C801B7010E94F900009719F536
:1001A000D1111BC0C93009F1CF5F8C010F5F1F4F08
:1001B00081E00E944B0080E38C0F0E9495002FEF9E
:1001C00080E792E0215080409040E1F700C00000BD
:1001D000DBCFD0E0DFCFD1E0DDCFD13031F7CC23A2
:1001E00031F0C150E2CFC801E0CFC0E0DECFC9E0BE
:1001F000DCCF97FB072E16F4009407D077FD09D0CB
:100200000E940D0107FC05D03EF4909581959F4F0B
:100210000895709561957F4F0895AA1BBB1B51E10E
:1002200007C0AA1FBB1FA617B70710F0A61BB70B66
:10023000881F991F5A95A9F780959095BC01CD010B
:060240000895F894FFCFC1
:00000001FF
