:100000000C9434000C9451000C9451000C94510049
:100010000C9481000C9451000C9451000C945100EC
:100020000C9451000C9451000C9451000C944E010E
:100030000C9451000C9451000C9451000C945100FC
:100040000C9451000C9451000C9451000C945100EC
:100050000C9451000C9451000C9451000C945100DC
:100060000C9451000C94510011241FBECFEFD8E026
:10007000DEBFCDBF11E0A0E0B1E0E0EDFCE002C0EA
:1000800005900D92A833B107D9F721E0A8E3B1E0BC
:1000900001C01D92A134B207E1F70E94E3010C9464
:1000A00066060C940000CF93DF93EC01CC0FDD1FAC
:1000B0009E0150E040E060E074E284EF90E00E9436
:1000C0002C03215031093093890020938800E1E806
:1000D000F0E0808181608083D0933901C093380142
:1000E000DF91CF91089505966AE070E00E941803B1
:1000F0006150710908F4089585E38A95F1F70000CD
:10010000F7CF1F920F920FB60F9211248F939F93E8
:1001100086B1982F927090934001909140019695EE
:1001200090934001807280933D0180913D018295C2
:100130008695877080933D0180913E01811126C094
:1001400080913D0181110FC080914001882359F0B9
:1001500080913A0190913B01019690933B018093ED
:100160003A0181E029C080913D018823D9F1809135
:100170004001811137C080913A0190913B01019774
:1001800090933B0180933A0182E016C080913E013A
:100190008130E1F580913D01882389F08091400113
:1001A000882369F080913A0190913B0101969093E8
:1001B0003B0180933A0183E080933F0113C080911B
:1001C0003D0181110FC08091400181110BC08091D0
:1001D0003A0190913B01019790933B0180933A0142
:1001E00010923F0190913F0180913E01981739F0A4
:1001F00081E080933C0180913F0180933E019F917B
:100200008F910F900FBE0F901F90189580913E0117
:100210008230E1F480913D01882351F080914001CA
:10022000882331F080913A0190913B010197BFCF33
:1002300080913D018111D6CF809140018111D2CFB3
:1002400080913A0190913B010196C6CF80913D018A
:1002500081110AC080914001882331F080913A01D8
:1002600090913B01019779CF80913D01882309F45A
:10027000B9CF809140018111B5CF80913A01909121
:100280003B0101967DCFE1E8F0E0808188608083CA
:10029000EFE6F0E080818260808308951F920F92E4
:1002A0000FB60F9211248F939F9385B190E1892708
:1002B00085B9809138019091390101979093390166
:1002C00080933801892B29F4809181008E7F80935F
:1002D00081009F918F910F900FBE0F901F901895E6
:1002E0009BB19F709BB99BB1807F892B8BB9299A59
:1002F000299A29980895CF93C82F28980E947001B1
:100300008C2F8295807F0E9470018FE39FE101977F
:10031000F1F700C00000CF910895811104C080E87A
:10032000860F0C947B0180ECFBCF8AB1806F8AB979
:10033000209A219A22988FE59AEE0197F1F700C052
:10034000000080E30E9470018FE19EE40197F1F7C5
:1003500000C0000080E30E9470018FED91E00197E2
:10036000F1F700C0000080E30E94700180E20E946B
:1003700070018FE39FE10197F1F700C0000088E270
:100380000E947B018FE00C947B01CF93C82F289AA9
:100390000E9470018C2F8295807F0E9470018FE3F4
:1003A0009FE10197F1F700C00000CF910895CF932E
:1003B000DF93EC018991811103C0DF91CF91089502
:1003C0000E94C501F7CFCF93DF93CDB7DEB7AC97CF
:1003D0000FB6F894DEBF0FBECDBF0E9495010E94FC
:1003E0004301249A88B1826288B92C988091680070
:1003F00082608093680080916C00826280936C00C0
:10040000789481E00E947B0165E080E00E948D018C
:1004100080E191E00E94D70163E081E00E948D01BC
:100420001F9284E18F931F9288E08F9387E08F93D0
:1004300082ED8F9387E191E09F938F931F928CE0E1
:100440008F938E010F5D1F4F1F930F930E948103A7
:10045000C8010E94D7012FEF33ED80E321503040D7
:100460008040E1F700C0000081E00E947B0186B17E
:10047000982F92709093400190914001969590939F
:100480004001807280933D0180913D018295869567
:10049000877080933D0180913D010FB6F894DEBFD7
:1004A0000FBECDBF8111ACC0809140018111A8C0A9
:1004B00010923E0180913E0180933F0181E00E94B5
:1004C0007B0190913D01809140011F929F931F926B
:1004D0008F9382E291E09F938F931F9290E1F92E88
:1004E000FF928E010F5E1F4F1F930F930E94810397
:1004F00060E080E00E948D01C8010E94D70160E0A9
:1005000081E00E948D0180913A0190913B019F937F
:100510008F938CE291E09F938F931F92FF921F9392
:100520000F930E948103C8010E94D7010FB6F8946F
:10053000DEBF0FBECDBF22E2E22E21E0F22E30E17F
:10054000B32E005111094CE2C42E41E0D42E80910B
:100550003C018823E1F310923C0181E00E947B0181
:1005600090913D01809140011F929F931F928F9324
:10057000FF92EF921F92BF921F930F930E948103ED
:1005800060E080E00E948D01C8010E94D70160E018
:1005900081E00E948D0180913A0190913B019F93EF
:1005A0008F93DF92CF921F92BF921F930F930E945F
:1005B0008103C8010E94D70180913A0190913B01CB
:1005C000877099270FB6F894DEBF0FBECDBF892B79
:1005D00009F0BDCFE0913A01F0913B01F7FF03C074
:1005E000F195E195F109F695E795F695E795EE70A9
:1005F000FF27E050FF4F808191810E945300A7CFD9
:1006000080913D01811108C080914001882321F033
:1006100081E080933E014ECF80913D01882331F0EF
:1006200080914001811102C082E0F3CF83E0F1CFDD
:1006300097FB072E16F4009407D077FD09D00E948F
:100640004B0307FC05D03EF4909581959F4F08958C
:10065000709561957F4F0895052E97FB1EF40094C9
:100660000E94430357FD07D00E945F0307FC03D09D
:100670004EF40C94430350954095309521953F4F8F
:100680004F4F5F4F089590958095709561957F4F7E
:100690008F4F9F4F0895AA1BBB1B51E107C0AA1F94
:1006A000BB1FA617B70710F0A61BB70B881F991F13
:1006B0005A95A9F780959095BC01CD010895A1E2C6
:1006C0001A2EAA1BBB1BFD010DC0AA1FBB1FEE1FCC
:1006D000FF1FA217B307E407F50720F0A21BB30B17
:1006E000E40BF50B661F771F881F991F1A9469F793
:1006F00060957095809590959B01AC01BD01CF01EF
:100700000895AEE0B0E0E7E8F3E00C943D060D8913
:100710001E898F89988D26E02C831A83098397FF81
:1007200002C080E090E801979E838D83AE01455E14
:100730005F4F698D7A8DCE0101960E94B1034D8184
:100740005E8157FD0AC02F813885421753070CF48C
:100750009A01020F131FF80110822E96E4E00C9408
:100760005906ABE0B0E0E7EBF3E00C942F067C0118
:100770003B018A01FC0117821682838181FFC8C177
:10078000CE0101965C01F7019381F30193FD859100
:1007900093FF81913F01882309F453C1853239F4D5
:1007A00093FD859193FF81913F01853229F4B70133
:1007B00090E00E94A105E7CF912C212C312CFFE184
:1007C000F31538F08B3211F190F4803209F1833255
:1007D00029F137FC3CC020ED280F2A3050F536FEB9
:1007E00020C08AE0989E200D1124922E06C08D32E2
:1007F00091F0803371F7689430F8F30193FD85919F
:1008000093FF81913F018111DACF21C0689431F8C3
:10081000689432F8F2CF689433F8EFCF689434F8E4
:10082000ECCFEAE02E9E200D1124222E689435F89C
:10083000E4CF8E3229F436FC04C1689436F8DDCF5B
:100840008C3619F4689437F8D8CF8836B1F2982FDF
:100850009F7D95549330E0F08336A1F18337C1F149
:10086000833509F063C02801F2E04F0E511CF801F6
:10087000C080D180692D70E036FC02C06FEF7FEF41
:10088000C6010E948B054C01689437F882010AC0AA
:100890000C5F1F4FFFE3F98388248394912C65013B
:1008A000E89437F833FE2DC0522C8114910471F571
:1008B000552009F468CFB70180E290E00E94A105BD
:1008C0005A94F6CFF801808189830E5F1F4FE4CFE1
:1008D0002801F2E04F0E511CF801C080D180692D33
:1008E00070E036FC02C06FEF7FEFC6010E949605F4
:1008F0004C018201D5CFB70180E290E00E94A105B2
:100900002A942814190409F0B0F7CECFF60137FC69
:10091000859137FE81916F01B70190E00E94A1059A
:1009200051105A94F1E08F1A9108BFCF843619F014
:10093000893609F077C0F80137FE6BC0608171819C
:10094000828193810C5F1F4FF32DFF763F2E97FF1F
:1009500009C090958095709561957F4F8F4F9F4FFF
:10096000689437F82AE030E0A5010E94D105C82E2E
:10097000CA188C2C432C36FE0CC0E89440F8C914DD
:1009800040F434FE05C032FC03C0F32DFE7E4F2E32
:10099000892C44FE95C0FE01EC0DF11D8081803351
:1009A00009F087C0242D297E422E842D8870582E70
:1009B00043FC95C040FE8FC09C2C821418F42C0C74
:1009C000922C981844FE91C0B70180E390E00E94F9
:1009D000A10542FE09C088E790E041FE02C088E51B
:1009E00090E0B7010E94A105C91408F48AC0CA9416
:1009F000D12C9FEFC91AD90ACA0CDB1CF6018291CF
:100A00006F01B70190E00E94A105AC14BD04B1F7DD
:100A10004FCF60817181072E000C880B990B0E5F00
:100A20001F4F92CFD32CE894D4F82AE030E08537DA
:100A300039F1232D297FD22E8F3601F148F48835E4
:100A4000A9F0F701868197812B96E2E10C944B0681
:100A5000803749F08837A9F7D4FE02C06894D2F8ED
:100A600020E130E00DC06894D4F8F6CF34FE03C026
:100A7000822F8660D82E20E132E002C028E030E0EC
:100A8000F801D7FE0FC060817181828193810C5F74
:100A90001F4FA5010E94D105C82ECA183D2CE8940D
:100AA00037F867CF6081718190E080E00E5F1F4F63
:100AB000F0CF42FC02C0839478CF8394839475CFA7
:100AC000842D867809F471CFF6CFB70180E290E0EB
:100AD0000E94A10583948214C0F3512C73CF522C31
:100AE0005818821408F46ECFF8CF842D867809F454
:100AF0007BCF8BE241FE80E247FC8DE2B70190E0C4
:100B000071CFB70180E390E00E94A1059A946CCF69
:100B10008FEF9FEF99CFFC0105906150704001105D
:100B2000D8F7809590958E0F9F1F0895FC01615016
:100B3000704001900110D8F7809590958E0F9F1FFF
:100B400008950F931F93CF93DF93182F092FEB0175
:100B50008B8181FD09C01FEF0FEF812F902FDF9157
:100B6000CF911F910F91089582FF14C02E813F8174
:100B70008C819D81281739073CF4E881F981CF01E8
:100B800001969983888310838E819F8101969F832C
:100B90008E83E3CFE885F985812F0995892BA1F311
:100BA000DACFFA01AA27283051F1203181F1E894F7
:100BB0006F936E7F6E5F7F4F8F4F9F4FAF4FB1E050
:100BC0003ED0B4E03CD0670F781F891F9A1FA11D4B
:100BD000680F791F8A1F911DA11D6A0F711D811D4C
:100BE000911DA11D20D009F468943F912AE0269F11
:100BF00011243019305D3193DEF6CF010895462F70
:100C00004770405D4193B3E00FD0C9F7F6CF462F50
:100C10004F70405D4A3318F0495D31FD40524193B9
:100C200002D0A9F7EACFB4E0A69597958795779576
:100C30006795BA95C9F700976105710508959B01FD
:100C4000AC010A2E06945795479537952795BA9586
:100C5000C9F7620F731F841F951FA01D08952F925F
:100C60003F924F925F926F927F928F929F92AF923C
:100C7000BF92CF92DF92EF92FF920F931F93CF9389
:100C8000DF93CDB7DEB7CA1BDB0B0FB6F894DEBF20
:100C90000FBECDBF09942A88398848885F846E8446
:100CA0007D848C849B84AA84B984C884DF80EE8090
:100CB000FD800C811B81AA81B981CE0FD11D0FB699
:100CC000F894DEBF0FBECDBFED010895F894FFCFBD
:100CD000060126014A015D018801B801EE010B02FF
:100CE0004B54204B696D0025642F253032642F252D
:100CF0006400413D256420423D256400436F756ECC
:080D00007420697320256400D2
:00000001FF
