:100000000C9434000C9451000C9451000C94510049
:100010000C9451000C9451000C9451000C9451001C
:100020000C9451000C9451000C9451000C948B00D2
:100030000C9451000C9451000C9451000C945100FC
:100040000C9451000C9451000C9451000C945100EC
:100050000C9451000C9451000C9451000C945100DC
:100060000C9451000C94510011241FBECFEFD8E026
:10007000DEBFCDBF11E0A0E0B1E0ECE3F4E002C0F0
:1000800005900D92A431B107D9F721E0A4E1B1E0C8
:1000900001C01D92A631B207E1F70E9412010C9433
:1000A0001C020C94000026B130E0082E02C03595E9
:1000B00027950A94E2F720FD19C0EFE1FEE431979D
:1000C000F1F700C0000021E030E002C0220F331F32
:1000D0008A95E2F786B190E082239323892BD1F3AE
:1000E0008FE19EE40197F1F700C000000895E1E878
:1000F000F0E0808188608083808184608083EFE687
:10010000F0E08081826080838AE698E190938900A4
:100110008093880008951F920F920FB60F921124BA
:100120008F939F9381E090E0909315018093140149
:100130009F918F910F900FBE0F901F9018959BB1BC
:100140009F709BB99BB1807F892B8BB9299A299A83
:1001500029980895CF93C82F28980E949F008C2F2C
:100160008295807F0E949F008FE39FE10197F1F7C6
:1001700000C00000CF910895811104C080E8860F6F
:100180000C94AA0080ECFBCF8AB1806F8AB9209AC8
:10019000219A22988FE59AEE0197F1F700C00000AE
:1001A00080E30E949F008FE19EE40197F1F700C079
:1001B000000080E30E949F008FED91E00197F1F72E
:1001C00000C0000080E30E949F0080E20E949F0028
:1001D0008FE39FE10197F1F700C0000088E20E94E1
:1001E000AA008FE00C94AA00CF93C82F289A0E94EF
:1001F0009F008C2F8295807F0E949F008FE39FE15C
:100200000197F1F700C00000CF910895CF93DF93DD
:10021000EC018991811103C0DF91CF9108950E9473
:10022000F400F7CF0E94C4000E94770087B18B7E54
:1002300087B988B1846188B93D9A81E00E94AA009B
:1002400065E080E00E94BC0080E091E00E94060131
:1002500062E081E00E94BC0087E091E00E9406011C
:100260002FEF83ED90E3215080409040E1F700C0F4
:10027000000081E00E94AA007894F12C912CE12CDE
:1002800000E010E0D0E0C0E082E0C82ED12CAA242B
:10029000A394B12CC1114DC0329B7FC0349909C0C9
:1002A00084E00E945300F12C912CE12C00E010E03E
:1002B000D0E08FEF8C0F833050F480911401909137
:1002C0001501019721F4D93008F069C0DF5FC33010
:1002D00009F073C081E00E94AA00FF2041F060E0B5
:1002E00080E00E94BC0080E38F0D0E94F40061E07A
:1002F00080E00E94BC0080E3890D0E94F40062E06F
:1003000080E00E94BC008EE20E94F40063E080E086
:100310000E94BC0080E38E0D0E94F4002FEF81EE5E
:1003200094E0215080409040E1F700C00000C3E01D
:100330002AC0C13021F4329BBCCFC2E0BACFC23058
:10034000F9F4329905C082E00E945300C0E0B1CFB9
:100350003499AFCF84E00E945300D0921501C0922F
:1003600014018091140190911501029739F4B09213
:100370001501A0921401F02E912EED2EC3E099CF1D
:10038000C33009F096CF329904C082E00E94530036
:10039000D4CF34998ECF84E0F9CFC1E08ACF193021
:1003A00018F41F5FD0E093CF053008F041C00F5F15
:1003B000C33089F510E0D0E08DCF81E00E94AA0023
:1003C000002341F060E080E00E94BC0080E3800FE9
:1003D0000E94F40061E080E00E94BC0080E3810F95
:1003E0000E94F40062E080E00E94BC008EE20E9465
:1003F000F40063E080E00E94BC0080E38D0F0E9467
:10040000F4002FEF81EE94E0215080409040E1F71E
:1004100000C000003FCF81E00E94AA0010E0D0E0C1
:10042000D1CF81E00E94AA0000E010E0D0E0D2CF5E
:0C043000C330B9F700E0BECFF894FFCF56
:10043C004B54204B696D004545313039204C61627D
:04044C002035000057
:00000001FF
