:100000000C9434000C9449000C9449000C94490061
:100010000C9449000C9449000C9449000C9449003C
:100020000C9449000C9449000C9449000C9449002C
:100030000C9449000C9449000C9449000C9449001C
:100040000C9449000C9449000C9449000C9449000C
:100050000C9449000C9449000C9449000C944900FC
:100060000C9449000C94490011241FBECFEFD8E036
:10007000DEBFCDBF11E0A0E0B1E0ECE3F8E002C0EC
:1000800005900D92A831B107D9F70E94EA000C94AF
:100090001C040C94000008959BB19F709BB99BB108
:1000A000807F892B8BB9299A299A29980895CF9313
:1000B000C82F28980E944C008C2F8295807F0E9428
:1000C0004C008FE39FE10197F1F700C00000CF9152
:1000D0000895811104C080E8860F0C94570080ECCD
:1000E000FBCF8AB1806F8AB9209A219A22988FE536
:1000F0009AEE0197F1F700C0000080E30E944C00E7
:100100008FE19EE40197F1F700C0000080E30E94B8
:100110004C008FED91E00197F1F700C0000080E303
:100120000E944C0080E20E944C008FE39FE1019707
:10013000F1F700C0000088E20E9457008FE00C94A5
:100140005700CF93C82F289A0E944C008C2F82957D
:10015000807F0E944C008FE39FE10197F1F700C080
:100160000000CF910895CF93DF93EC018991811125
:1001700003C0DF91CF9108950E94A100F7CFECE773
:10018000F0E080818F7780838081806480838081AC
:1001900080628083EAE7F0E08081876080838081ED
:1001A00080688083089590917C00907F90937C007C
:1001B00090917C008F70892B80937C0080917A00D5
:1001C000806480937A0080917A0086FDFCCF8091D4
:1001D00079000895CF93DF9300D000D01F92CDB760
:1001E000DEB70E9471000E94BF0081E00E945700AC
:1001F00065E080E00E94690080E091E00E94B30029
:1002000062E081E00E94690087E091E00E94B30013
:100210002FEF83ED90E3215080409040E1F700C044
:10022000000081E00E94570083E1E82E81E0F82E73
:1002300095E0D92E8E010F5F1F4F80E00E94D30002
:100240001F928F93FF92EF921F92DF921F930F9353
:100250000E94370160E080E00E946900C8010E94AE
:10026000B3000FB6F894DEBF0FBECDBFE6CFAEE051
:10027000B0E0EDE3F1E00C94F3030D891E898F8962
:10028000988D26E02C831A83098397FF02C080E0B3
:1002900090E801979E838D83AE01455E5F4F698D27
:1002A0007A8DCE0101960E9467014D815E8157FDD6
:1002B0000AC02F813885421753070CF49A01020FA8
:1002C000131FF80110822E96E4E00C940F04ABE0AB
:1002D000B0E0EDE6F1E00C94E5037C013B018A011E
:1002E000FC0117821682838181FFC8C1CE0101966D
:1002F0005C01F7019381F30193FD859193FF819157
:100300003F01882309F453C1853239F493FD859167
:1003100093FF81913F01853229F4B70190E00E945B
:100320005703E7CF912C212C312CFFE1F31538F046
:100330008B3211F190F4803209F1833229F137FCCC
:100340003CC020ED280F2A3050F536FE20C08AE050
:10035000989E200D1124922E06C08D3291F080338C
:1003600071F7689430F8F30193FD859193FF8191C3
:100370003F018111DACF21C0689431F8689432F8D6
:10038000F2CF689433F8EFCF689434F8ECCFEAE01A
:100390002E9E200D1124222E689435F8E4CF8E3243
:1003A00029F436FC04C1689436F8DDCF8C3619F494
:1003B000689437F8D8CF8836B1F2982F9F7D95543E
:1003C0009330E0F08336A1F18337C1F1833509F032
:1003D00063C02801F2E04F0E511CF801C080D180AB
:1003E000692D70E036FC02C06FEF7FEFC6010E94FE
:1003F00041034C01689437F882010AC00C5F1F4F1B
:10040000FFE3F98388248394912C6501E89437F8FD
:1004100033FE2DC0522C8114910471F5552009F43E
:1004200068CFB70180E290E00E9457035A94F6CF5C
:10043000F801808189830E5F1F4FE4CF2801F2E02D
:100440004F0E511CF801C080D180692D70E036FC40
:1004500002C06FEF7FEFC6010E944C034C01820186
:10046000D5CFB70180E290E00E9457032A94281468
:10047000190409F0B0F7CECFF60137FC859137FEAD
:1004800081916F01B70190E00E94570351105A9477
:10049000F1E08F1A9108BFCF843619F0893609F040
:1004A00077C0F80137FE6BC06081718182819381D2
:1004B0000C5F1F4FF32DFF763F2E97FF09C09095DD
:1004C0008095709561957F4F8F4F9F4F689437F857
:1004D0002AE030E0A5010E948703C82ECA188C2CA0
:1004E000432C36FE0CC0E89440F8C91440F434FEA6
:1004F00005C032FC03C0F32DFE7E4F2E892C44FE36
:1005000095C0FE01EC0DF11D8081803309F087C09C
:10051000242D297E422E842D8870582E43FC95C0B0
:1005200040FE8FC09C2C821418F42C0C922C98182E
:1005300044FE91C0B70180E390E00E94570342FE61
:1005400009C088E790E041FE02C088E590E0B7016D
:100550000E945703C91408F48AC0CA94D12C9FEF93
:10056000C91AD90ACA0CDB1CF60182916F01B701C6
:1005700090E00E945703AC14BD04B1F74FCF6081E7
:100580007181072E000C880B990B0E5F1F4F92CFC5
:10059000D32CE894D4F82AE030E0853739F1232DC4
:1005A000297FD22E8F3601F148F48835A9F0F70162
:1005B000868197812B96E2E10C940104803749F003
:1005C0008837A9F7D4FE02C06894D2F820E130E061
:1005D0000DC06894D4F8F6CF34FE03C0822F866035
:1005E000D82E20E132E002C028E030E0F801D7FE4A
:1005F0000FC060817181828193810C5F1F4FA501C3
:100600000E948703C82ECA183D2CE89437F867CF9C
:100610006081718190E080E00E5F1F4FF0CF42FC5F
:1006200002C0839478CF8394839475CF842D867889
:1006300009F471CFF6CFB70180E290E00E94570332
:1006400083948214C0F3512C73CF522C5818821407
:1006500008F46ECFF8CF842D867809F47BCF8BE237
:1006600041FE80E247FC8DE2B70190E071CFB70117
:1006700080E390E00E9457039A946CCF8FEF9FEF36
:1006800099CFFC010590615070400110D8F780951A
:1006900090958E0F9F1F0895FC016150704001904E
:1006A0000110D8F7809590958E0F9F1F08950F9396
:1006B0001F93CF93DF93182F092FEB018B8181FDBF
:1006C00009C01FEF0FEF812F902FDF91CF911F9166
:1006D0000F91089582FF14C02E813F818C819D81EE
:1006E000281739073CF4E881F981CF0101969983F5
:1006F000888310838E819F8101969F838E83E3CFB1
:10070000E885F985812F0995892BA1F3DACFFA01C4
:10071000AA27283051F1203181F1E8946F936E7F40
:100720006E5F7F4F8F4F9F4FAF4FB1E03ED0B4E031
:100730003CD0670F781F891F9A1FA11D680F791F72
:100740008A1F911DA11D6A0F711D811D911DA11D83
:1007500020D009F468943F912AE0269F1124301993
:10076000305D3193DEF6CF010895462F4770405D2E
:100770004193B3E00FD0C9F7F6CF462F4F70405DDD
:100780004A3318F0495D31FD4052419302D0A9F738
:10079000EACFB4E0A6959795879577956795BA9532
:1007A000C9F700976105710508959B01AC010A2EF8
:1007B00006945795479537952795BA95C9F7620FCF
:1007C000731F841F951FA01D08952F923F924F9273
:1007D0005F926F927F928F929F92AF92BF92CF92D1
:1007E000DF92EF92FF920F931F93CF93DF93CDB7DA
:1007F000DEB7CA1BDB0B0FB6F894DEBF0FBECDBF52
:1008000009942A88398848885F846E847D848C8422
:100810009B84AA84B984C884DF80EE80FD800C812B
:100820001B81AA81B981CE0FD11D0FB6F894DEBF0E
:0C0830000FBECDBFED010895F894FFCF7E
:10083C004B54204B696D004545313039204C616279
:08084C00203700253464000090
:00000001FF
